:100000003FC068C158C057C056C055C054C053C047
:1000100052C051C050C04FC04EC04DC04CC04BC06C
:100020004AC049C048C009021200010100C00A09C3
:10003000040000000000000012011001FF00000891
:10004000C016DC05000101020001180350006F001A
:100050007700650072005300770069007400630048
:1000600068001A037700770077002E006F006200A7
:100070006400650076002E0061007400040309042A
:1000800011241FBECFE5D4E0DEBFCDBF10E0A0E657
:10009000B0E0ECEAF6E002C005900D92A236B1079E
:1000A000D9F720E0A2E6B0E001C01D92A839B2075E
:1000B000E1F7A2D2F9C2A4CFCF93DF9380917E0063
:1000C000835087FD8FC090917B0020917A002D3264
:1000D00009F086C0883009F083C0CCE0D0E0C91BAD
:1000E000D109CE57DF4F83EC80936E008AE5809371
:1000F0006100109262002881822F807619F0CE0173
:1001000023D265C08A8110927700998191110BC02A
:100110002F7119F481E0809377001092780027E71F
:1001200030E082E050C0953019F480937F003DC0EC
:100130009630A9F59B81913019F488E390E004C0D2
:10014000923041F486E290E090937D0080937C00B1
:1001500082E121C09330F1F4811108C08CE790E076
:1001600090937D0080937C0084E015C0813041F441
:1001700082E690E090937D0080937C008AE10BC042
:10018000823041F48AE490E090937D0080937C007B
:1001900088E101C080E090E49093620018C098303C
:1001A00079F0993031F48093810027E730E080E0E6
:1001B0000AC081E09A3009F080E027E730E003C010
:1001C00021E830E081E030937D0020937C009F8126
:1001D000911104C09E81981708F4892F80936000C4
:1001E00010927E008091610084FF47C08091600082
:1001F0008F3F09F442C0C82F893008F0C8E08C1B3B
:100200008093600090916E0088E8892780936E004B
:10021000CC2339F180917C0090917D002091620087
:1002200026FF0BC0AFE6B0E0FC012C2F280F349165
:100230003D9331962E13FBCF09C0DC01EFE6F0E0D1
:100240002C2F2E0F3D9131932E13FCCF2FEF2C0F1F
:1002500030E02F5F3F4F820F931F90937D0080937C
:100260007C006C2F8FE690E031D0CC5FCC3019F061
:100270008FEF80936000C093610084E190B394712C
:1002800031F48150D9F710927F0010927900DF91FC
:10029000CF91089585B7826085BF8BB780648BBF8F
:1002A0000895A82FB92F80E090E041E050EA6095D2
:1002B00030E009C02D9182279795879510F084270B
:1002C0009527305EC8F36F5FA8F30895EADF8D933A
:1002D0009D930895CF93CFB7CF93DF93C395849B1E
:1002E000E9F7849B0BC0849B09C0849B07C0849B57
:1002F00005C0849B03C0849B01C089C06F93C091DB
:100300007B00DD27CE57DF4F2F9365E5849B03C02D
:100310002F916F91E6CF0F931F934F9320E040E111
:100320005F9300B3047104FB27F93F9350E03BE077
:1003300039C0147140642F77012F5F5F1EC0406881
:1003400010B314712F7752501FC0406400B32F7741
:100350000471D1F15F5F00C023C0406210B32F77FA
:10036000147191F15F5F00C025C0047110275150D6
:1003700012F45D5F0000115027952C3F10B3C8F6B2
:1003800014710127015027952C3FC8F64227499345
:1003900000B3047110274F73115027952C3FA8F616
:1003A0004695469510B3147179F0012701502795B1
:1003B0002C3F98F66B5A60F3315000B3B0F600C092
:1003C00010E41ABF002717C03B503195C31BD04023
:1003D00010E41ABF0881033CF9F00B34E9F02091D6
:1003E00079001981110F1213EDCF093651F10D3239
:1003F00011F0013E39F7009380003F915F914F91DA
:100400001F910F912F916F91CAB7C6FD67CFDF91F2
:10041000CF91CFBFCF91189520918000222369F30F
:1004200010917E00112339F534303AF130937E007B
:1004300020937A0010917B003BE0311B30937B00CE
:100440001CC000917E000130B4F40AE530916100D7
:1004500034FD14C000936100CEE6D0E013C0052740
:1004600010E000C0000002BB1AC0052710E0221FE8
:100470001DC010E021C04AE502C032ED432FC4E1A7
:10048000D0E032E011B31461949A02B311BB54E18D
:1004900020E865E320FF052702BB279517951C3F41
:1004A000F0F66695B8F7B1F720FF052702BB279550
:1004B00017951C3FD0F62795179517FF05270000C5
:1004C0001C3F02BBB0F629913A9519F70B7E1091AB
:1004D0007F00110FC651D04002BB11F0109379007C
:1004E00010E41ABF006111B31B7E402F4B7E54E015
:1004F0005A95F1F702BB11BB42BB7FCFE6E6F0E0B5
:1005000091E080E028E02E0F31913111892B990F75
:100510002E13FACF0895CF9385E290E0B0D0C82F84
:10052000EDDF8C2798B3282F2C7F9370922B98BBEC
:1005300022B330E1839FC00111248073922F9F7CEE
:10054000892B82BBCF910895CF93DF93EC0185E295
:1005500090E095D0982F24E630E030937D002093F2
:100560007C004981411105C08A81809364008B81A0
:1005700005C0413039F480936400C0DF809365008A
:1005800082E037C0403C31F482E080936400809385
:1005900065002FC0403461F18EEF840F823038F552
:1005A0008C818770282F30E061E070E001C0660F19
:1005B0008A95EAF7892F8623423031F4692B91E03E
:1005C000811190E0892F02C0609569239A81911171
:1005D00008C0F901EA59FF4F108285E290E057D038
:1005E00006C0882321F0F901EA59FF4F908393DF79
:1005F00080E0DF91CF9108959EE088E10FB6F894F6
:10060000A89581BD0FBE91BD8BEF81BB12BA18BA00
:100610008BEE87BB80DF8C9A80E0815041F0A895FB
:10062000EFE3FFE13197F1F700C00000F6CF8C98BF
:1006300085E083BF2FDE7894D8E086E690E0C8E0BE
:10064000C80FA89539DD08B600FEFBCF88B78160DA
:1006500088BF809163009FEF980F90936300811192
:10066000F0CFD0936300E6E6F0E08081882311F0BC
:10067000815080833196CE13F8CF4DDFE2CFE199E0
:10068000FECF9FBB8EBBE09A99278DB30895262F8E
:10069000E199FECF9FBB8EBB2DBB0FB6F894E29ABB
:0C06A000E19A0FBE01960895F894FFCF78
:0206AC00FF5AF3
:00000001FF
